{
  "contractName": "MemberRole",
  "abi": [
    {
      "inputs": [],
      "stateMutability": "nonpayable",
      "type": "constructor"
    },
    {
      "anonymous": false,
      "inputs": [
        {
          "indexed": false,
          "internalType": "address",
          "name": "member",
          "type": "address"
        },
        {
          "indexed": false,
          "internalType": "uint256",
          "name": "activationTime",
          "type": "uint256"
        },
        {
          "indexed": false,
          "internalType": "string",
          "name": "roleType",
          "type": "string"
        }
      ],
      "name": "RoleAdded",
      "type": "event"
    },
    {
      "anonymous": false,
      "inputs": [
        {
          "indexed": false,
          "internalType": "address",
          "name": "member",
          "type": "address"
        },
        {
          "indexed": false,
          "internalType": "bool",
          "name": "newRole",
          "type": "bool"
        },
        {
          "indexed": false,
          "internalType": "uint256",
          "name": "timestamp",
          "type": "uint256"
        }
      ],
      "name": "StateChanged",
      "type": "event"
    },
    {
      "inputs": [
        {
          "internalType": "uint256",
          "name": "",
          "type": "uint256"
        }
      ],
      "name": "addresses",
      "outputs": [
        {
          "internalType": "address",
          "name": "",
          "type": "address"
        }
      ],
      "stateMutability": "view",
      "type": "function",
      "constant": true
    },
    {
      "inputs": [],
      "name": "membersCount",
      "outputs": [
        {
          "internalType": "uint256",
          "name": "",
          "type": "uint256"
        }
      ],
      "stateMutability": "view",
      "type": "function",
      "constant": true
    },
    {
      "inputs": [
        {
          "internalType": "uint256",
          "name": "",
          "type": "uint256"
        }
      ],
      "name": "roleTypes",
      "outputs": [
        {
          "internalType": "string",
          "name": "",
          "type": "string"
        }
      ],
      "stateMutability": "view",
      "type": "function",
      "constant": true
    },
    {
      "inputs": [],
      "name": "roleTypesCount",
      "outputs": [
        {
          "internalType": "uint256",
          "name": "",
          "type": "uint256"
        }
      ],
      "stateMutability": "view",
      "type": "function",
      "constant": true
    },
    {
      "inputs": [
        {
          "internalType": "address",
          "name": "",
          "type": "address"
        }
      ],
      "name": "userRole",
      "outputs": [
        {
          "internalType": "uint256",
          "name": "activationTime",
          "type": "uint256"
        },
        {
          "internalType": "bool",
          "name": "isActive",
          "type": "bool"
        },
        {
          "internalType": "string",
          "name": "roleType",
          "type": "string"
        }
      ],
      "stateMutability": "view",
      "type": "function",
      "constant": true
    },
    {
      "inputs": [
        {
          "internalType": "address",
          "name": "_member",
          "type": "address"
        },
        {
          "internalType": "uint256",
          "name": "_roleType",
          "type": "uint256"
        }
      ],
      "name": "addRole",
      "outputs": [],
      "stateMutability": "nonpayable",
      "type": "function"
    },
    {
      "inputs": [
        {
          "internalType": "address",
          "name": "_member",
          "type": "address"
        },
        {
          "internalType": "bool",
          "name": "_newState",
          "type": "bool"
        }
      ],
      "name": "changeRoleStatus",
      "outputs": [],
      "stateMutability": "nonpayable",
      "type": "function"
    },
    {
      "inputs": [
        {
          "internalType": "string",
          "name": "_roleType",
          "type": "string"
        }
      ],
      "name": "addRoleType",
      "outputs": [],
      "stateMutability": "nonpayable",
      "type": "function"
    }
  ],
  "bytecode": "0x608060405234801561001057600080fd5b50600080546001600160a01b03191633179055610c74806100326000396000f3fe608060405234801561001057600080fd5b50600436106100885760003560e01c8063968923a41161005b578063968923a4146100f35780639a496a3c14610106578063be09174d1461010f578063edf26d9b1461012f57600080fd5b8063297f9af01461008d5780634caa94db146100a9578063534f5680146100be5780637fde1c8a146100e0575b600080fd5b61009660045481565b6040519081526020015b60405180910390f35b6100bc6100b73660046107fe565b61015a565b005b6100d16100cc36600461083a565b610342565b6040516100a0939291906108a2565b6100bc6100ee3660046108cc565b6103f1565b6100bc61010136600461090c565b61062f565b61009660055481565b61012261011d3660046109bd565b61070c565b6040516100a091906109d6565b61014261013d3660046109bd565b6107b8565b6040516001600160a01b0390911681526020016100a0565b6000546001600160a01b0316331461018d5760405162461bcd60e51b8152600401610184906109e9565b60405180910390fd5b6001600160a01b0382166101e35760405162461bcd60e51b815260206004820152601e60248201527f506c6561652070726f7669646520612076616c696420616464726573732e00006044820152606401610184565b6001600160a01b03821660009081526003602052604081205490036102555760405162461bcd60e51b815260206004820152602260248201527f546869732061646472657373206973206e6f7420612076616c6964206d656d6260448201526132b960f11b6064820152608401610184565b6001600160a01b03821660009081526003602052604090206001015481151560ff9091161515036102d45760405162461bcd60e51b815260206004820152602360248201527f546865206d656d62657220697320616c726561647920696e207468697320737460448201526261746560e81b6064820152608401610184565b6001600160a01b038216600081815260036020908152604091829020600101805460ff191685151590811790915582519384529083015242908201527fb965fe859adbfcaf277bb9d21a5de534aa40f5a06a58dbf224de25d789b063a9906060015b60405180910390a15050565b600360205260009081526040902080546001820154600283018054929360ff9092169261036e90610a16565b80601f016020809104026020016040519081016040528092919081815260200182805461039a90610a16565b80156103e75780601f106103bc576101008083540402835291602001916103e7565b820191906000526020600020905b8154815290600101906020018083116103ca57829003601f168201915b5050505050905083565b6000546001600160a01b0316331461041b5760405162461bcd60e51b8152600401610184906109e9565b6001600160a01b0382166104715760405162461bcd60e51b815260206004820152601f60248201527f506c656173652070726f7669646520612076616c696420616464726573732e006044820152606401610184565b60405180606001604052804281526020016001151581526020016001838154811061049e5761049e610a50565b9060005260206000200180546104b390610a16565b80601f01602080910402602001604051908101604052809291908181526020018280546104df90610a16565b801561052c5780601f106105015761010080835404028352916020019161052c565b820191906000526020600020905b81548152906001019060200180831161050f57829003601f168201915b5050509190925250506001600160a01b038316600090815260036020908152604091829020835181559083015160018201805460ff191691151591909117905590820151600282019061057f9082610ab5565b50506002805460018101825560009182527f405787fa12a823e0f2b7631cc41b3ba8828b3321ca811111fa75cd3aa3bb5ace0180546001600160a01b0319166001600160a01b038616179055600480549250906105db83610b75565b91905055507f2d11a6c31a685efcee07cc703c683f35bd414e7dd09aeee874fe401bab830f3a82426001848154811061061657610616610a50565b9060005260206000200160405161033693929190610b9c565b6000546001600160a01b031633146106595760405162461bcd60e51b8152600401610184906109e9565b80516000036106b85760405162461bcd60e51b815260206004820152602560248201527f546865206e616d6520666f722074686520726f6c652063616e6e6f7420626520604482015264626c616e6b60d81b6064820152608401610184565b600580549060006106c883610b75565b90915550506001805480820182556000919091527fb10e2d527612073b26eecdfd717e6a320cf44b4afac2b0732d9fcbe2b7fa0cf6016107088282610ab5565b5050565b6001818154811061071c57600080fd5b90600052602060002001600091509050805461073790610a16565b80601f016020809104026020016040519081016040528092919081815260200182805461076390610a16565b80156107b05780601f10610785576101008083540402835291602001916107b0565b820191906000526020600020905b81548152906001019060200180831161079357829003601f168201915b505050505081565b600281815481106107c857600080fd5b6000918252602090912001546001600160a01b0316905081565b80356001600160a01b03811681146107f957600080fd5b919050565b6000806040838503121561081157600080fd5b61081a836107e2565b91506020830135801515811461082f57600080fd5b809150509250929050565b60006020828403121561084c57600080fd5b610855826107e2565b9392505050565b6000815180845260005b8181101561088257602081850181015186830182015201610866565b506000602082860101526020601f19601f83011685010191505092915050565b83815282151560208201526060604082015260006108c3606083018461085c565b95945050505050565b600080604083850312156108df57600080fd5b6108e8836107e2565b946020939093013593505050565b634e487b7160e01b600052604160045260246000fd5b60006020828403121561091e57600080fd5b813567ffffffffffffffff8082111561093657600080fd5b818401915084601f83011261094a57600080fd5b81358181111561095c5761095c6108f6565b604051601f8201601f19908116603f01168101908382118183101715610984576109846108f6565b8160405282815287602084870101111561099d57600080fd5b826020860160208301376000928101602001929092525095945050505050565b6000602082840312156109cf57600080fd5b5035919050565b602081526000610855602083018461085c565b60208082526013908201527220b1b1b2b9b9903737ba1033b930b73a32b21760691b604082015260600190565b600181811c90821680610a2a57607f821691505b602082108103610a4a57634e487b7160e01b600052602260045260246000fd5b50919050565b634e487b7160e01b600052603260045260246000fd5b601f821115610ab057600081815260208120601f850160051c81016020861015610a8d5750805b601f850160051c820191505b81811015610aac57828155600101610a99565b5050505b505050565b815167ffffffffffffffff811115610acf57610acf6108f6565b610ae381610add8454610a16565b84610a66565b602080601f831160018114610b185760008415610b005750858301515b600019600386901b1c1916600185901b178555610aac565b600085815260208120601f198616915b82811015610b4757888601518255948401946001909101908401610b28565b5085821015610b655787850151600019600388901b60f8161c191681555b5050505050600190811b01905550565b600060018201610b9557634e487b7160e01b600052601160045260246000fd5b5060010190565b60018060a01b03841681526000602084818401526060604084015260008454610bc481610a16565b8060608701526080600180841660008114610be65760018114610c0057610c2e565b60ff1985168984015283151560051b890183019550610c2e565b896000528660002060005b85811015610c265781548b8201860152908301908801610c0b565b8a0184019650505b50939a995050505050505050505056fea2646970667358221220e9fa82e1574da5d5abc60fda4a0e13993557754f752e3fdb165a73d710458cc964736f6c63430008110033",
  "immutableReferences": {},
  "source": "contract MemberRole {\n    /** Admin address */\n    address owner;\n\n    /**\n    Struct defining the role for members of the community\n    activationTime - The timestamp from which the role will be enabled\n    isActive - if a role is active or not\n    roleType - the role type through this custom business logic can be built\n    */\n    struct Role {\n        uint256 activationTime;\n        bool isActive;\n        string roleType;\n    }\n\n    /** Dynamic array holding all the roles */\n    string[] public roleTypes;\n\n    /** Dynamic array holding users addresses */\n    address[] public addresses;\n    /** Relationship between users and their role */\n    mapping(address => Role) public userRole;\n\n    /** Total count of users that have a role */\n    uint256 public membersCount;\n    /** Total count of Jur Role Types **/\n    uint256 public roleTypesCount;\n\n    event StateChanged(address member, bool newRole, uint256 timestamp);\n    event RoleAdded(address member, uint256 activationTime, string roleType);\n\n    modifier onlyOwner() {\n        require(msg.sender == owner, 'Access not granted.');\n        _;\n    }\n\n    constructor() {\n        owner = msg.sender;\n    }\n\n    /**\n    @dev addRole - allows Admin to assign a Role to a Member\n    @param _member - the address of the member that will get the new role assigned\n    @param _roleType - index of the role in the roleTypes array\n    */\n    function addRole(address _member, uint256 _roleType) public onlyOwner {\n        require(_member != address(0), 'Please provide a valid address.');\n        userRole[_member] = Role(block.timestamp, true, roleTypes[_roleType]);\n        addresses.push(_member);\n        membersCount++;\n\n        emit RoleAdded(_member, block.timestamp, roleTypes[_roleType]);\n    }\n\n    /**\n    @dev changeRoleStatus - allows Admin to change the status of a Member\n    @param _member - the address of the member whose status will toggle\n    @param _newState -  activate or disable the role\n    */\n    function changeRoleStatus(address _member, bool _newState)\n        public\n        onlyOwner\n    {\n        require(_member != address(0), 'Pleae provide a valid address.');\n        require(\n            userRole[_member].activationTime != 0,\n            'This address is not a valid member'\n        );\n        require(\n            userRole[_member].isActive != _newState,\n            'The member is already in this state'\n        );\n        userRole[_member].isActive = _newState;\n\n        emit StateChanged(_member, _newState, block.timestamp);\n    }\n\n    /**\n    @dev addRoleType - allows Admin to add a new role that can be assigned to members\n    logic.\n    @param _roleType - the name for the new role\n    */\n    function addRoleType(string memory _roleType) public onlyOwner {\n        require(\n            bytes(_roleType).length != 0,\n            'The name for the role cannot be blank'\n        );\n        roleTypesCount++;\n        roleTypes.push(_roleType);\n    }\n}\n",
  "sourcePath": "/Users/emmanuelafuaadajo/Dev/project/aguadulce/contracts/MemberRole.sol",
  "compiler": {
    "name": "solc",
    "version": "0.8.17+commit.8df45f5f.Emscripten.clang"
  },
  "schemaVersion": "3.4.11",
  "updatedAt": "2022-12-18T14:38:19.359Z",
  "networkType": "ethereum",
  "devdoc": {
    "kind": "dev",
    "methods": {
      "addRole(address,uint256)": {
        "details": "addRole - allows Admin to assign a Role to a Member",
        "params": {
          "_member": "- the address of the member that will get the new role assigned",
          "_roleType": "- index of the role in the roleTypes array"
        }
      },
      "addRoleType(string)": {
        "details": "addRoleType - allows Admin to add a new role that can be assigned to members logic.",
        "params": {
          "_roleType": "- the name for the new role"
        }
      },
      "changeRoleStatus(address,bool)": {
        "details": "changeRoleStatus - allows Admin to change the status of a Member",
        "params": {
          "_member": "- the address of the member whose status will toggle",
          "_newState": "-  activate or disable the role"
        }
      }
    },
    "version": 1
  },
  "userdoc": {
    "kind": "user",
    "methods": {
      "addresses(uint256)": {
        "notice": "Dynamic array holding users addresses "
      },
      "membersCount()": {
        "notice": "Total count of users that have a role "
      },
      "roleTypes(uint256)": {
        "notice": "Dynamic array holding all the roles "
      },
      "roleTypesCount()": {
        "notice": "Total count of Jur Role Types *"
      },
      "userRole(address)": {
        "notice": "Relationship between users and their role "
      }
    },
    "version": 1
  }
}